{
  "contractName": "WotToken",
  "abi": [
    {
      "constant": true,
      "inputs": [],
      "name": "name",
      "outputs": [
        {
          "name": "",
          "type": "string"
        }
      ],
      "payable": false,
      "stateMutability": "view",
      "type": "function",
      "signature": "0x06fdde03"
    },
    {
      "constant": true,
      "inputs": [],
      "name": "minter",
      "outputs": [
        {
          "name": "",
          "type": "address"
        }
      ],
      "payable": false,
      "stateMutability": "view",
      "type": "function",
      "signature": "0x07546172"
    },
    {
      "constant": true,
      "inputs": [],
      "name": "totalSupply",
      "outputs": [
        {
          "name": "",
          "type": "uint256"
        }
      ],
      "payable": false,
      "stateMutability": "view",
      "type": "function",
      "signature": "0x18160ddd"
    },
    {
      "constant": true,
      "inputs": [],
      "name": "standard",
      "outputs": [
        {
          "name": "",
          "type": "string"
        }
      ],
      "payable": false,
      "stateMutability": "view",
      "type": "function",
      "signature": "0x5a3b7e42"
    },
    {
      "constant": true,
      "inputs": [
        {
          "name": "",
          "type": "address"
        }
      ],
      "name": "balanceOf",
      "outputs": [
        {
          "name": "",
          "type": "uint256"
        }
      ],
      "payable": false,
      "stateMutability": "view",
      "type": "function",
      "signature": "0x70a08231"
    },
    {
      "constant": true,
      "inputs": [],
      "name": "symbol",
      "outputs": [
        {
          "name": "",
          "type": "string"
        }
      ],
      "payable": false,
      "stateMutability": "view",
      "type": "function",
      "signature": "0x95d89b41"
    },
    {
      "constant": true,
      "inputs": [
        {
          "name": "",
          "type": "address"
        },
        {
          "name": "",
          "type": "address"
        }
      ],
      "name": "allowance",
      "outputs": [
        {
          "name": "",
          "type": "uint256"
        }
      ],
      "payable": false,
      "stateMutability": "view",
      "type": "function",
      "signature": "0xdd62ed3e"
    },
    {
      "inputs": [
        {
          "name": "_initialSupply",
          "type": "uint256"
        }
      ],
      "payable": false,
      "stateMutability": "nonpayable",
      "type": "constructor",
      "signature": "constructor"
    },
    {
      "anonymous": false,
      "inputs": [
        {
          "indexed": true,
          "name": "_from",
          "type": "address"
        },
        {
          "indexed": true,
          "name": "_to",
          "type": "address"
        },
        {
          "indexed": false,
          "name": "_value",
          "type": "uint256"
        }
      ],
      "name": "Transfer",
      "type": "event",
      "signature": "0xddf252ad1be2c89b69c2b068fc378daa952ba7f163c4a11628f55a4df523b3ef"
    },
    {
      "anonymous": false,
      "inputs": [
        {
          "indexed": true,
          "name": "_owner",
          "type": "address"
        },
        {
          "indexed": true,
          "name": "_spender",
          "type": "address"
        },
        {
          "indexed": false,
          "name": "_value",
          "type": "uint256"
        }
      ],
      "name": "Approval",
      "type": "event",
      "signature": "0x8c5be1e5ebec7d5bd14f71427d1e84f3dd0314c0f7b2291e5b200ac8c7c3b925"
    },
    {
      "anonymous": false,
      "inputs": [
        {
          "indexed": false,
          "name": "_minter",
          "type": "address"
        },
        {
          "indexed": false,
          "name": "_numberOfTokens",
          "type": "uint256"
        }
      ],
      "name": "Mint",
      "type": "event",
      "signature": "0x0f6798a560793a54c3bcfe86a93cde1e73087d944c0ea20544137d4121396885"
    },
    {
      "anonymous": false,
      "inputs": [
        {
          "indexed": false,
          "name": "_oldMinter",
          "type": "address"
        },
        {
          "indexed": false,
          "name": "_newMinter",
          "type": "address"
        }
      ],
      "name": "MinterUpdate",
      "type": "event",
      "signature": "0x72e5c22110908ab95772634fa117b12aa8ae025759d280512a4ab4fa273e0960"
    },
    {
      "constant": false,
      "inputs": [
        {
          "name": "_to",
          "type": "address"
        },
        {
          "name": "_value",
          "type": "uint256"
        }
      ],
      "name": "transfer",
      "outputs": [
        {
          "name": "res",
          "type": "bool"
        }
      ],
      "payable": false,
      "stateMutability": "nonpayable",
      "type": "function",
      "signature": "0xa9059cbb"
    },
    {
      "constant": false,
      "inputs": [
        {
          "name": "_spender",
          "type": "address"
        },
        {
          "name": "_value",
          "type": "uint256"
        }
      ],
      "name": "approve",
      "outputs": [
        {
          "name": "res",
          "type": "bool"
        }
      ],
      "payable": false,
      "stateMutability": "nonpayable",
      "type": "function",
      "signature": "0x095ea7b3"
    },
    {
      "constant": false,
      "inputs": [
        {
          "name": "_owner",
          "type": "address"
        },
        {
          "name": "_to",
          "type": "address"
        },
        {
          "name": "_value",
          "type": "uint256"
        }
      ],
      "name": "transferFrom",
      "outputs": [
        {
          "name": "res",
          "type": "bool"
        }
      ],
      "payable": false,
      "stateMutability": "nonpayable",
      "type": "function",
      "signature": "0x23b872dd"
    },
    {
      "constant": false,
      "inputs": [
        {
          "name": "_numberOfTokens",
          "type": "uint256"
        }
      ],
      "name": "mintTokens",
      "outputs": [
        {
          "name": "res",
          "type": "bool"
        }
      ],
      "payable": false,
      "stateMutability": "nonpayable",
      "type": "function",
      "signature": "0x97304ced"
    },
    {
      "constant": false,
      "inputs": [
        {
          "name": "_newMinter",
          "type": "address"
        }
      ],
      "name": "updateMinter",
      "outputs": [
        {
          "name": "res",
          "type": "bool"
        }
      ],
      "payable": false,
      "stateMutability": "nonpayable",
      "type": "function",
      "signature": "0x4eb03f6e"
    }
  ],
  "bytecode": "0x60806040526040805190810160405280601281526020017f57696c6c69616d4f6b61666f72546f6b656e0000000000000000000000000000815250600190805190602001906200005192919062000232565b506040805190810160405280600381526020017f574f540000000000000000000000000000000000000000000000000000000000815250600290805190602001906200009f92919062000232565b506040805190810160405280600881526020017f574f542076312e3000000000000000000000000000000000000000000000000081525060039080519060200190620000ed92919062000232565b5073a62ba163e57219fa1e67ec21cc101b5e5167d111600460006101000a81548173ffffffffffffffffffffffffffffffffffffffff021916908373ffffffffffffffffffffffffffffffffffffffff1602179055506000600460146101000a81548160ff021916908360ff1602179055503480156200016c57600080fd5b506040516020806200153c833981018060405260208110156200018e57600080fd5b81019080805190602001909291905050508060008190555033600560006101000a81548173ffffffffffffffffffffffffffffffffffffffff021916908373ffffffffffffffffffffffffffffffffffffffff16021790555080600660003373ffffffffffffffffffffffffffffffffffffffff1673ffffffffffffffffffffffffffffffffffffffff1681526020019081526020016000208190555050620002e1565b828054600181600116156101000203166002900490600052602060002090601f016020900481019282601f106200027557805160ff1916838001178555620002a6565b82800160010185558215620002a6579182015b82811115620002a557825182559160200191906001019062000288565b5b509050620002b59190620002b9565b5090565b620002de91905b80821115620002da576000816000905550600101620002c0565b5090565b90565b61124b80620002f16000396000f3fe6080604052600436106100ba576000357c0100000000000000000000000000000000000000000000000000000000900463ffffffff16806306fdde03146100bf578063075461721461014f578063095ea7b3146101a657806318160ddd1461021957806323b872dd146102445780634eb03f6e146102d75780635a3b7e421461034057806370a08231146103d057806395d89b411461043557806397304ced146104c5578063a9059cbb14610518578063dd62ed3e1461058b575b600080fd5b3480156100cb57600080fd5b506100d4610610565b6040518080602001828103825283818151815260200191508051906020019080838360005b838110156101145780820151818401526020810190506100f9565b50505050905090810190601f1680156101415780820380516001836020036101000a031916815260200191505b509250505060405180910390f35b34801561015b57600080fd5b506101646106ae565b604051808273ffffffffffffffffffffffffffffffffffffffff1673ffffffffffffffffffffffffffffffffffffffff16815260200191505060405180910390f35b3480156101b257600080fd5b506101ff600480360360408110156101c957600080fd5b81019080803573ffffffffffffffffffffffffffffffffffffffff169060200190929190803590602001909291905050506106d4565b604051808215151515815260200191505060405180910390f35b34801561022557600080fd5b5061022e6107c6565b6040518082815260200191505060405180910390f35b34801561025057600080fd5b506102bd6004803603606081101561026757600080fd5b81019080803573ffffffffffffffffffffffffffffffffffffffff169060200190929190803573ffffffffffffffffffffffffffffffffffffffff169060200190929190803590602001909291905050506107cc565b604051808215151515815260200191505060405180910390f35b3480156102e357600080fd5b50610326600480360360208110156102fa57600080fd5b81019080803573ffffffffffffffffffffffffffffffffffffffff169060200190929190505050610a3b565b604051808215151515815260200191505060405180910390f35b34801561034c57600080fd5b50610355610c31565b6040518080602001828103825283818151815260200191508051906020019080838360005b8381101561039557808201518184015260208101905061037a565b50505050905090810190601f1680156103c25780820380516001836020036101000a031916815260200191505b509250505060405180910390f35b3480156103dc57600080fd5b5061041f600480360360208110156103f357600080fd5b81019080803573ffffffffffffffffffffffffffffffffffffffff169060200190929190505050610ccf565b6040518082815260200191505060405180910390f35b34801561044157600080fd5b5061044a610ce7565b6040518080602001828103825283818151815260200191508051906020019080838360005b8381101561048a57808201518184015260208101905061046f565b50505050905090810190601f1680156104b75780820380516001836020036101000a031916815260200191505b509250505060405180910390f35b3480156104d157600080fd5b506104fe600480360360208110156104e857600080fd5b8101908080359060200190929190505050610d85565b604051808215151515815260200191505060405180910390f35b34801561052457600080fd5b506105716004803603604081101561053b57600080fd5b81019080803573ffffffffffffffffffffffffffffffffffffffff16906020019092919080359060200190929190505050610ecf565b604051808215151515815260200191505060405180910390f35b34801561059757600080fd5b506105fa600480360360408110156105ae57600080fd5b81019080803573ffffffffffffffffffffffffffffffffffffffff169060200190929190803573ffffffffffffffffffffffffffffffffffffffff1690602001909291905050506111fa565b6040518082815260200191505060405180910390f35b60018054600181600116156101000203166002900480601f0160208091040260200160405190810160405280929190818152602001828054600181600116156101000203166002900480156106a65780601f1061067b576101008083540402835291602001916106a6565b820191906000526020600020905b81548152906001019060200180831161068957829003601f168201915b505050505081565b600460009054906101000a900473ffffffffffffffffffffffffffffffffffffffff1681565b600081600760003373ffffffffffffffffffffffffffffffffffffffff1673ffffffffffffffffffffffffffffffffffffffff16815260200190815260200160002060008573ffffffffffffffffffffffffffffffffffffffff1673ffffffffffffffffffffffffffffffffffffffff168152602001908152602001600020819055508273ffffffffffffffffffffffffffffffffffffffff163373ffffffffffffffffffffffffffffffffffffffff167f8c5be1e5ebec7d5bd14f71427d1e84f3dd0314c0f7b2291e5b200ac8c7c3b925846040518082815260200191505060405180910390a36001905092915050565b60005481565b600081600660008673ffffffffffffffffffffffffffffffffffffffff1673ffffffffffffffffffffffffffffffffffffffff168152602001908152602001600020541015151561081c57600080fd5b81600760008673ffffffffffffffffffffffffffffffffffffffff1673ffffffffffffffffffffffffffffffffffffffff16815260200190815260200160002060003373ffffffffffffffffffffffffffffffffffffffff1673ffffffffffffffffffffffffffffffffffffffff16815260200190815260200160002054101515156108a757600080fd5b8273ffffffffffffffffffffffffffffffffffffffff168473ffffffffffffffffffffffffffffffffffffffff167fddf252ad1be2c89b69c2b068fc378daa952ba7f163c4a11628f55a4df523b3ef846040518082815260200191505060405180910390a381600660008673ffffffffffffffffffffffffffffffffffffffff1673ffffffffffffffffffffffffffffffffffffffff1681526020019081526020016000206000828254039250508190555081600660008573ffffffffffffffffffffffffffffffffffffffff1673ffffffffffffffffffffffffffffffffffffffff1681526020019081526020016000206000828254019250508190555081600760008673ffffffffffffffffffffffffffffffffffffffff1673ffffffffffffffffffffffffffffffffffffffff16815260200190815260200160002060003373ffffffffffffffffffffffffffffffffffffffff1673ffffffffffffffffffffffffffffffffffffffff16815260200190815260200160002060008282540392505081905550600190509392505050565b6000600560009054906101000a900473ffffffffffffffffffffffffffffffffffffffff1673ffffffffffffffffffffffffffffffffffffffff163373ffffffffffffffffffffffffffffffffffffffff16141515610b28576040517f08c379a00000000000000000000000000000000000000000000000000000000081526004018080602001828103825260258152602001807f4f6e6c7920636f6e7472616374206f776e65722063616e20757064617465206d81526020017f696e74657200000000000000000000000000000000000000000000000000000081525060400191505060405180910390fd5b6000600460009054906101000a900473ffffffffffffffffffffffffffffffffffffffff16905082600460006101000a81548173ffffffffffffffffffffffffffffffffffffffff021916908373ffffffffffffffffffffffffffffffffffffffff1602179055507f72e5c22110908ab95772634fa117b12aa8ae025759d280512a4ab4fa273e09608184604051808373ffffffffffffffffffffffffffffffffffffffff1673ffffffffffffffffffffffffffffffffffffffff1681526020018273ffffffffffffffffffffffffffffffffffffffff1673ffffffffffffffffffffffffffffffffffffffff1681526020019250505060405180910390a16001915050919050565b60038054600181600116156101000203166002900480601f016020809104026020016040519081016040528092919081815260200182805460018160011615610100020316600290048015610cc75780601f10610c9c57610100808354040283529160200191610cc7565b820191906000526020600020905b815481529060010190602001808311610caa57829003601f168201915b505050505081565b60066020528060005260406000206000915090505481565b60028054600181600116156101000203166002900480601f016020809104026020016040519081016040528092919081815260200182805460018160011615610100020316600290048015610d7d5780601f10610d5257610100808354040283529160200191610d7d565b820191906000526020600020905b815481529060010190602001808311610d6057829003601f168201915b505050505081565b60003373ffffffffffffffffffffffffffffffffffffffff16600460009054906101000a900473ffffffffffffffffffffffffffffffffffffffff1673ffffffffffffffffffffffffffffffffffffffff16141515610e4c576040517f08c379a000000000000000000000000000000000000000000000000000000000815260040180806020018281038252601f8152602001807f4f6e6c79206d696e74657220697320616c6c6f77656420746f206d696e742e0081525060200191505060405180910390fd5b8160008082825401925050819055507f0f6798a560793a54c3bcfe86a93cde1e73087d944c0ea20544137d41213968853383604051808373ffffffffffffffffffffffffffffffffffffffff1673ffffffffffffffffffffffffffffffffffffffff1681526020018281526020019250505060405180910390a160019050919050565b6000806000600460149054906101000a900460ff1660ff161115610ef557339050610f49565b600560009054906101000a900473ffffffffffffffffffffffffffffffffffffffff1690506001600460148282829054906101000a900460ff160192506101000a81548160ff021916908360ff1602179055505b8373ffffffffffffffffffffffffffffffffffffffff168173ffffffffffffffffffffffffffffffffffffffff1614151515611013576040517f08c379a00000000000000000000000000000000000000000000000000000000081526004018080602001828103825260238152602001807f53656e646572206d757374206e6f742062652073616d6520617320726563656981526020017f766572000000000000000000000000000000000000000000000000000000000081525060400191505060405180910390fd5b82600660008373ffffffffffffffffffffffffffffffffffffffff1673ffffffffffffffffffffffffffffffffffffffff16815260200190815260200160002054101515156110f0576040517f08c379a00000000000000000000000000000000000000000000000000000000081526004018080602001828103825260398152602001807f5468652062616c616e6365206f66207468652073656e646572206d757374206281526020017f65203e3d207468652076616c7565206265696e672073656e740000000000000081525060400191505060405180910390fd5b82600660008373ffffffffffffffffffffffffffffffffffffffff1673ffffffffffffffffffffffffffffffffffffffff1681526020019081526020016000206000828254039250508190555082600660008673ffffffffffffffffffffffffffffffffffffffff1673ffffffffffffffffffffffffffffffffffffffff168152602001908152602001600020600082825401925050819055508373ffffffffffffffffffffffffffffffffffffffff168173ffffffffffffffffffffffffffffffffffffffff167fddf252ad1be2c89b69c2b068fc378daa952ba7f163c4a11628f55a4df523b3ef856040518082815260200191505060405180910390a3600191505092915050565b600760205281600052604060002060205280600052604060002060009150915050548156fea165627a7a72305820a9a59c248cd036118e6878e4734812ec78d3ee5f7ea3accc293a16bc7fd1e94c0029",
  "source": "pragma solidity >=0.4.21 <0.6.0;\r\n\r\n\r\n/**\r\n * The BaToken contract does this and that...\r\n */\r\ncontract WotToken {\r\n\r\n  uint256 public totalSupply; // compulsory in erc20 standard\r\n  // Set the name of the token\r\n  string public name = 'WilliamOkaforToken'; // optional in erc20 standard\r\n  // Set the symbol of the token\r\n  string public symbol = 'WOT'; // optional in erc20 standard\r\n  // Set the standard\r\n  string public standard = 'WOT v1.0'; // Not in erc20 standard\r\n  // Set the minter\r\n  address public minter = 0xa62ba163e57219fa1e67ec21cC101B5E5167D111;\r\n\r\n  uint8 initial = 0;\r\n\r\n  address admin;\r\n\r\n  mapping (address => uint256) public balanceOf; // Track the tokens belonging to each address that has received a transfer\r\n  \r\n  // Emit that a transfer happened\r\n  event Transfer(\r\n      address indexed _from,\r\n      address indexed _to,\r\n      uint256 _value\r\n  );\r\n\r\n  // Emit that a delegated spending has been approved\r\n  event Approval(\r\n    address indexed _owner,\r\n    address indexed _spender,\r\n    uint256 _value\r\n  );\r\n\r\n  event Mint(address _minter, uint256 _numberOfTokens);\r\n  event MinterUpdate(address _oldMinter, address _newMinter);\r\n  \r\n\r\n  // Two levels deep mapping -- From left to right means: I, address a, permits address b to spend x amount of tokens on my behalf\r\n  // This was, a single address can delegate token spendings to multiple addresses\r\n  mapping(address => mapping(address => uint256)) public allowance;\r\n  \r\n\r\n  constructor (uint256 _initialSupply) public{\r\n    totalSupply = _initialSupply;\r\n    admin = msg.sender;\r\n    balanceOf[msg.sender] = _initialSupply;// we gave the account that deployed this contract all the initial tokens\r\n    // allocate the initial supply\r\n  }\r\n\r\n\r\n\r\n  // Transfer function -- compulsory in erc20\r\n  function transfer (address _to, uint256 _value) public returns(bool res) {\r\n\r\n    address _sender;\r\n    if(initial > 0){ // If this isnt the first deployment\r\n      _sender = msg.sender;\r\n    } else { // Use the admin because this is the constructor provisioning 750k tokens to the sales contract\r\n      _sender = admin;\r\n      initial += 1;\r\n    }\r\n    require(_sender != _to, 'Sender must not be same as receiver');\r\n    // Balance of sender must be >= the value being sent\r\n    require(balanceOf[_sender] >= _value, \"The balance of the sender must be >= the value being sent\");\r\n    // Make transfer\r\n    balanceOf[_sender] -= _value;\r\n    balanceOf[_to] += _value;\r\n    // Emit event\r\n    emit Transfer(_sender, _to, _value);\r\n    // Return a boolean\r\n    return true;\r\n  }\r\n  \r\n  function approve (address _spender, uint256 _value) public returns(bool res) {\r\n    \r\n    // allowance\r\n    allowance[msg.sender][_spender] = _value;\r\n    //Emit the Approval event\r\n    emit Approval(msg.sender, _spender, _value);\r\n    return true;\r\n  }\r\n\r\n  function transferFrom (address _owner, address _to, uint256 _value) public returns(bool res) {\r\n    require(balanceOf[_owner] >= _value); // the owner's balance can take this\r\n    require(allowance[_owner][msg.sender] >= _value); // the allowed delegated transfer isnt crossed\r\n    emit Transfer(_owner, _to, _value);\r\n    balanceOf[_owner] -= _value;\r\n    balanceOf[_to] += _value;\r\n    allowance[_owner][msg.sender] -= _value;\r\n    return true;\r\n  }\r\n\r\n  function mintTokens (uint256 _numberOfTokens) public returns(bool res) {\r\n    require (minter == msg.sender, \"Only minter is allowed to mint.\");\r\n    totalSupply += _numberOfTokens;\r\n    emit Mint(msg.sender, _numberOfTokens);\r\n    return true;\r\n  }\r\n\r\n  function updateMinter (address _newMinter) public returns(bool res) {\r\n    require (msg.sender == admin, \"Only contract owner can update minter\");\r\n    address _minter = minter;\r\n    minter = _newMinter;\r\n    emit MinterUpdate(_minter, _newMinter);\r\n    return true;\r\n  }\r\n  \r\n}\r\n",
  "sourcePath": "C:/Users/wilpa/Documents/projects/Solidity/token_sale_buycoins/contracts/WotToken.sol",
  "compiler": {
    "name": "solc",
    "version": "0.5.0+commit.1d4f565a.Emscripten.clang"
  },
  "schemaVersion": "3.0.2",
  "updatedAt": "2019-06-23T16:01:11.896Z",
  "devdoc": {
    "methods": {}
  },
  "userdoc": {
    "methods": {},
    "notice": "The BaToken contract does this and that...\r"
  }
}